{
  "contractName": "union",
  "abi": [
    {
      "constant": true,
      "inputs": [
        {
          "name": "",
          "type": "uint256"
        }
      ],
      "name": "proposals",
      "outputs": [
        {
          "name": "minimum_wage",
          "type": "uint256"
        },
        {
          "name": "votecount",
          "type": "uint256"
        }
      ],
      "payable": false,
      "stateMutability": "view",
      "type": "function"
    },
    {
      "constant": true,
      "inputs": [
        {
          "name": "",
          "type": "address"
        },
        {
          "name": "",
          "type": "bytes32"
        }
      ],
      "name": "job_detail",
      "outputs": [
        {
          "name": "",
          "type": "bool"
        }
      ],
      "payable": false,
      "stateMutability": "view",
      "type": "function"
    },
    {
      "constant": true,
      "inputs": [],
      "name": "owner",
      "outputs": [
        {
          "name": "",
          "type": "address"
        }
      ],
      "payable": false,
      "stateMutability": "view",
      "type": "function"
    },
    {
      "constant": true,
      "inputs": [
        {
          "name": "",
          "type": "address"
        }
      ],
      "name": "voters",
      "outputs": [
        {
          "name": "weight",
          "type": "uint256"
        },
        {
          "name": "profession",
          "type": "bytes32"
        },
        {
          "name": "voted",
          "type": "bool"
        },
        {
          "name": "delegate",
          "type": "address"
        },
        {
          "name": "vote",
          "type": "uint256"
        }
      ],
      "payable": false,
      "stateMutability": "view",
      "type": "function"
    },
    {
      "inputs": [
        {
          "name": "minimum_wage_proposals",
          "type": "uint256[]"
        }
      ],
      "payable": false,
      "stateMutability": "nonpayable",
      "type": "constructor"
    },
    {
      "constant": false,
      "inputs": [
        {
          "name": "_profession",
          "type": "bytes32"
        }
      ],
      "name": "voteforProfession",
      "outputs": [],
      "payable": false,
      "stateMutability": "nonpayable",
      "type": "function"
    },
    {
      "constant": false,
      "inputs": [
        {
          "name": "voter",
          "type": "address"
        },
        {
          "name": "_profession",
          "type": "bytes32"
        }
      ],
      "name": "giveRighttoVote",
      "outputs": [],
      "payable": false,
      "stateMutability": "nonpayable",
      "type": "function"
    },
    {
      "constant": false,
      "inputs": [
        {
          "name": "to",
          "type": "address"
        }
      ],
      "name": "delegate",
      "outputs": [],
      "payable": false,
      "stateMutability": "nonpayable",
      "type": "function"
    },
    {
      "constant": true,
      "inputs": [],
      "name": "winningProposal",
      "outputs": [
        {
          "name": "_winningProposal",
          "type": "uint256"
        }
      ],
      "payable": false,
      "stateMutability": "view",
      "type": "function"
    },
    {
      "constant": true,
      "inputs": [],
      "name": "winnerdetail",
      "outputs": [
        {
          "name": "_winning_wage",
          "type": "uint256"
        }
      ],
      "payable": false,
      "stateMutability": "view",
      "type": "function"
    }
  ],
  "bytecode": "0x608060405234801561001057600080fd5b50604051610b61380380610b6183398101806040528101908080518201929190505050600033600360006101000a81548173ffffffffffffffffffffffffffffffffffffffff021916908373ffffffffffffffffffffffffffffffffffffffff160217905550600090505b81518110156101025760026040805190810160405280848481518110151561009f57fe5b9060200190602002015181526020016000815250908060018154018082558091505090600182039060005260206000209060020201600090919290919091506000820151816000015560208201518160010155505050808060010191505061007b565b5050610a4e806101136000396000f300608060405260043610610099576000357c0100000000000000000000000000000000000000000000000000000000900463ffffffff168063013cf08b1461009e57806329d0ab97146100e65780635c19a95c1461014f578063609ff1bd146101925780638da5cb5b146101bd578063a3ec138d14610214578063a4957996146102bf578063ac83d32714610310578063f9a6b93614610341575b600080fd5b3480156100aa57600080fd5b506100c96004803603810190808035906020019092919050505061036c565b604051808381526020018281526020019250505060405180910390f35b3480156100f257600080fd5b50610135600480360381019080803573ffffffffffffffffffffffffffffffffffffffff169060200190929190803560001916906020019092919050505061039f565b604051808215151515815260200191505060405180910390f35b34801561015b57600080fd5b50610190600480360381019080803573ffffffffffffffffffffffffffffffffffffffff1690602001909291905050506103ce565b005b34801561019e57600080fd5b506101a76106b8565b6040518082815260200191505060405180910390f35b3480156101c957600080fd5b506101d2610733565b604051808273ffffffffffffffffffffffffffffffffffffffff1673ffffffffffffffffffffffffffffffffffffffff16815260200191505060405180910390f35b34801561022057600080fd5b50610255600480360381019080803573ffffffffffffffffffffffffffffffffffffffff169060200190929190505050610759565b604051808681526020018560001916600019168152602001841515151581526020018373ffffffffffffffffffffffffffffffffffffffff1673ffffffffffffffffffffffffffffffffffffffff1681526020018281526020019550505050505060405180910390f35b3480156102cb57600080fd5b5061030e600480360381019080803573ffffffffffffffffffffffffffffffffffffffff16906020019092919080356000191690602001909291905050506107bc565b005b34801561031c57600080fd5b5061033f6004803603810190808035600019169060200190929190505050610980565b005b34801561034d57600080fd5b506103566109f3565b6040518082815260200191505060405180910390f35b60028181548110151561037b57fe5b90600052602060002090600202016000915090508060000154908060010154905082565b60006020528160005260406000206020528060005260406000206000915091509054906101000a900460ff1681565b600080600160003373ffffffffffffffffffffffffffffffffffffffff1673ffffffffffffffffffffffffffffffffffffffff16815260200190815260200160002091508160020160009054906101000a900460ff1615151561043057600080fd5b3373ffffffffffffffffffffffffffffffffffffffff168373ffffffffffffffffffffffffffffffffffffffff161415151561046b57600080fd5b5b600073ffffffffffffffffffffffffffffffffffffffff16600160008573ffffffffffffffffffffffffffffffffffffffff1673ffffffffffffffffffffffffffffffffffffffff16815260200190815260200160002060020160019054906101000a900473ffffffffffffffffffffffffffffffffffffffff1673ffffffffffffffffffffffffffffffffffffffff161415156105a957600160008473ffffffffffffffffffffffffffffffffffffffff1673ffffffffffffffffffffffffffffffffffffffff16815260200190815260200160002060020160019054906101000a900473ffffffffffffffffffffffffffffffffffffffff1692503373ffffffffffffffffffffffffffffffffffffffff168373ffffffffffffffffffffffffffffffffffffffff16141515156105a457600080fd5b61046c565b60018260020160006101000a81548160ff021916908315150217905550828260020160016101000a81548173ffffffffffffffffffffffffffffffffffffffff021916908373ffffffffffffffffffffffffffffffffffffffff160217905550600160008473ffffffffffffffffffffffffffffffffffffffff1673ffffffffffffffffffffffffffffffffffffffff16815260200190815260200160002090508060020160009054906101000a900460ff161561069c5781600001546002826003015481548110151561067957fe5b9060005260206000209060020201600101600082825401925050819055506106b3565b816000015481600001600082825401925050819055505b505050565b6000806000809150600090505b60028054905081101561072e57816002828154811015156106e257fe5b90600052602060002090600202016001015411156107215760028181548110151561070957fe5b90600052602060002090600202016001015491508092505b80806001019150506106c5565b505090565b600360009054906101000a900473ffffffffffffffffffffffffffffffffffffffff1681565b60016020528060005260406000206000915090508060000154908060010154908060020160009054906101000a900460ff16908060020160019054906101000a900473ffffffffffffffffffffffffffffffffffffffff16908060030154905085565b600360009054906101000a900473ffffffffffffffffffffffffffffffffffffffff1673ffffffffffffffffffffffffffffffffffffffff163373ffffffffffffffffffffffffffffffffffffffff1614151561081857600080fd5b600160008373ffffffffffffffffffffffffffffffffffffffff1673ffffffffffffffffffffffffffffffffffffffff16815260200190815260200160002060020160009054906101000a900460ff1615151561087457600080fd5b6000600160008473ffffffffffffffffffffffffffffffffffffffff1673ffffffffffffffffffffffffffffffffffffffff168152602001908152602001600020600001541415156108c557600080fd5b6000808373ffffffffffffffffffffffffffffffffffffffff1673ffffffffffffffffffffffffffffffffffffffff1681526020019081526020016000206000826000191660001916815260200190815260200160002060009054906101000a900460ff16151561093557600080fd5b60018060008473ffffffffffffffffffffffffffffffffffffffff1673ffffffffffffffffffffffffffffffffffffffff168152602001908152602001600020600001819055505050565b60016000803373ffffffffffffffffffffffffffffffffffffffff1673ffffffffffffffffffffffffffffffffffffffff1681526020019081526020016000206000836000191660001916815260200190815260200160002060006101000a81548160ff02191690831515021790555050565b600060026109ff6106b8565b815481101515610a0b57fe5b9060005260206000209060020201600001549050905600a165627a7a72305820fdc964c038e00498eee93c75ff4a8fdaeefba3f3b1ee318fb0eb7a556fdb14660029",
  "source": "pragma solidity ^0.4.23;\n\ncontract union {\n\n\tmapping(address => mapping(bytes32 => bool)) public job_detail;\n\n\tstruct union_member {\n\t\tuint weight;\n\t\tbytes32 profession; \n\t\tbool voted;\n\t\taddress delegate;\n\t\tuint vote; //index of the voted proposal\n\t}\n\n\tstruct Proposal {\n\t\tuint256 minimum_wage;\n\t\tuint votecount;\n\t}\n\n\tmapping(address => union_member) public voters;\n\n\tProposal[] public proposals;\n\n\taddress public owner;\n\n\tconstructor(uint256[] minimum_wage_proposals) public {\n\t\t\n\t\towner = msg.sender;\n\n\t\tfor(uint i = 0; i < minimum_wage_proposals.length; i++) {\n\t\t\t\n\t\t\tproposals.push(Proposal({\n\n\t\t\t\tminimum_wage: minimum_wage_proposals[i],\n\t\t\t\tvotecount: 0\n\n\t\t\t\t}));\n\t\t}\n\t}\n\n\tmodifier Authoriser() {\n\t\trequire(msg.sender == owner);\n\t\t_;\n\t}\n\n\tfunction voteforProfession(bytes32 _profession) public {\n\n\t\tjob_detail[msg.sender][_profession] = true;\n\t}\n\n\tfunction giveRighttoVote(address voter, bytes32 _profession) public {\n\n\t\trequire(msg.sender == owner);\n\n\t\trequire(!voters[voter].voted);\n\n\t\trequire(voters[voter].weight == 0);\n\n\t\trequire(job_detail[voter][_profession]);\n\n\t\tvoters[voter].weight = 1;\n\t}\n\n\tfunction delegate(address to) public {\n\n\t\tunion_member storage sender = voters[msg.sender];\n\n\t\trequire(!sender.voted);\n\n\t\trequire(to != msg.sender);\n\n\t\twhile (voters[to].delegate != address(0)) {\n\n\t\t\tto = voters[to].delegate;\n\n\t\t\trequire(to != msg.sender);\n\t\t}\n\n\t\tsender.voted = true;\n\n\t\tsender.delegate = to;\n\n\t\tunion_member storage _delegate = voters[to];\n\n\t\tif(_delegate.voted) {\n\n\t\t\tproposals[_delegate.vote].votecount += sender.weight; \n\t\t}\n\t\telse {\n\n\t\t\t_delegate.weight += sender.weight;\n\t\t}\n\t}\n\n\tfunction winningProposal() public view returns(uint _winningProposal) {\n\n\t\tuint winningVotecount = 0;\n\n\t\tfor(uint p = 0; p < proposals.length; p++) {\n\n\t\t\tif(proposals[p].votecount > winningVotecount) {\n\n\t\t\t\twinningVotecount = proposals[p].votecount;\n\n\t\t\t\t_winningProposal = p;\n\t\t\t}\n\t\t}\n\t}\n\n\tfunction winnerdetail() public view returns(uint256 _winning_wage) {\n\n\t\t_winning_wage = proposals[winningProposal()].minimum_wage;\n\t}\n\n}\n\n\n\n\n\n\n\n\n\n\n\n\n\n\n\n\n\n\n\n\n\n\n\n\n\n\n\n\n",
  "sourcePath": "/Users/herambadash/workers_union/contracts/union.sol",
  "compiler": {
    "name": "solc",
    "version": "0.4.24+commit.e67f0147.Emscripten.clang"
  },
  "schemaVersion": "2.0.1",
  "updatedAt": "2018-10-09T09:49:22.567Z"
}